:020000040800F2
:10000000381B0020090100083B130008D301000839
:10001000391300085D0300080918000800000000FB
:10002000000000000000000000000000DD130008D8
:100030005F030008000000005B010008DF130008F8
:100040002301000823010008230100082301000800
:1000500023010008230100082301000823010008F0
:1000600023010008230100082301000823010008E0
:1000700023010008230100082301000823010008D0
:1000800023010008230100082301000823010008C0
:1000900023010008230100082301000823010008B0
:1000A00023010008230100082301000823010008A0
:1000B0002301000823010008230100082301000890
:1000C0002301000823010008230100082301000880
:1000D00023010008C1170008D9170008F11700080C
:1000E0002301000823010008230100082301000860
:1000F00023010008DFF80CD000F0ECF800480047BE
:100100004F030008381B0020064880470648004778
:10011000FEE7FEE7FEE7FEE7FEE7FEE7FEE7FEE7B7
:10012000FEE7FEE7D1140008F5000008EFF31080A9
:1001300072B6704780F310887047324A1368012BFB
:1001400004D04FF0010313602F4A10602F4A116052
:100150002F484FF0805101607047EFF3108272B664
:100160002848016891B14FF00001016026480168FC
:1001700029B1EFF3098121E9F00F006801602349FB
:1001800009680968B1E8F00F81F3098882F31088E3
:100190004EF0040E70471D4908601B494FF00000E7
:1001A000086018494FF0010008601A484FF47F01B9
:1001B000D0F8002041EA0201016015484FF080515B
:1001C000016015480068006880F3088861B662B66F
:1001D00070471EF0040F14BFEFF30880EFF309809F
:1001E00020E9F00F40F804ED14BF80F3088880F395
:1001F000098800B503F08EFF5DF804EB4EF0040EA5
:1002000070470000F0010020E8010020EC01002010
:1002100004ED00E020ED00E008ED00E040EA01031D
:100220009B0703D009E008C9121F08C0042AFAD2AC
:1002300003E011F8013B00F8013B521EF9D2704770
:10024000D2B201E000F8012B491EFBD27047002218
:10025000F6E710B513460A4604461946FFF7F0FFC5
:10026000204610BD421E12F8013F002BFBD111F8B1
:10027000013B02F8013B002BF9D17047421C10F8FA
:10028000011B0029FBD1801A704730B504460020BD
:10029000034600E05B1C934203D2E05CCD5C401B54
:1002A000F8D030BD034611F8012B00F8012B002ACD
:1002B000F9D11846704730B505460020034600E0E6
:1002C0005B1C934205D2EC5CC85C201A01D1002C67
:1002D000F6D130BD064C074D06E0E06840F0010362
:1002E00094E8070098471034AC42F6D3FFF706FFB6
:1002F000547D0008747D000870B58C1810F8015BFF
:1003000015F0070301D110F8013B2A1106D110F8AE
:10031000012B03E010F8016B01F8016B5B1EF9D1B2
:100320002B0705D40023521E0DD401F8013BFAE738
:1003300010F8013BCB1A921C03E013F8015B01F8A3
:10034000015B521EF9D5A142D8D3002070BD10B573
:10035000FFF7ECFE06F0A6FA002010BDFEE770479E
:100360002DE9F84FDFF864B100234FF0010C4FF096
:10037000030A4FF00F090BF1040EA0E00CFA03F68C
:10038000324072D04C68022C01D0122C0ED1DC0805
:1003900000EB8408D8F820405D07EF0E09FA07F556
:1003A000AC430D69BD402543C8F8205007685D0087
:1003B00091F804800AFA05F408F00308A74308FA44
:1003C00005F848EA0708C0F800804F68012F05D0FB
:1003D000022F03D0112F01D0122F11D18768D1F82D
:1003E0000C80A74308FA05F848EA0708C0F8088017
:1003F0004768B7430E79C6F300169E403E434660F9
:10040000C668A6438C68AC403443C4604C68E400C2
:1004100054D52F4C256845F001052560246823F04C
:10042000030504F0010400942A4C2544AF689C079E
:10043000240F09FA04F6B743274EB04201D1002633
:1004400015E0264EB04201D1012610E0244EB04204
:1004500001D102260BE0234EB04201D1032606E073
:10046000214EB04202D1042601E027E00526A64035
:100470003E43AE60DBF800405D464E689443F603B1
:1004800000D514432C60DEF8004075464E68944356
:10049000B60300D514432C600C4D08352C684E680B
:1004A0009443F60200D514432C60084D0C352C689B
:1004B0004E689443B60200D514432C605B1C0A6856
:1004C00032FA03F47FF45AAFBDE8F88F000401401C
:1004D00020380240000001400000024000040240B9
:1004E00000080240000C0240001002400148006871
:1004F00070470000DC00002002480168491C0160D0
:1005000070470000DC000020094810B5016841F088
:1005100004010160016841F002010160032000F064
:1005200085F80F2000F006F800F018F8002010BD44
:10053000003C024010B5044607484FF47A71006849
:10054000B0FBF1F000F0D6FD00222146501E00F075
:100550004DF8002010BD0000E0000020224808B542
:10056000016841F000410160016801F00041009123
:10057000011F0A6842F001020A60096801F00101E6
:100580000091016841F080510160006800F08050E6
:100590000090032000F04AF8002211466FF00B0093
:1005A00000F024F8002211466FF00A0000F01EF857
:1005B000002211466FF0090000F018F800221146E1
:1005C000501F00F013F800221146101F00F00EF823
:1005D00000221146901E00F009F80022BDE80840F4
:1005E0001146501E00F002B824380240F0B40E4B01
:1005F0001B680C46C3F30223C3F10705042D00D981
:100600000425191D072901D2002300E0DB1E012665
:1006100006FA05F1491E214099409E40761E16407B
:100620003143F0BC00F08ABE0CED00E0064900F05A
:10063000070208684FF6FF03184040EA0220034A09
:1006400010430860704700000CED00E00000FA0560
:100650002DE9F047DFF8BC8105460E46D8F80000CA
:1006600000F00100B04214D2012E05D1D8F80010DC
:1006700041F00401C8F80010D8F8001021F0010181
:100680003143C8F80010D8F8000000F00100B04273
:1006900071D12878604C800705D52068A96820F0C2
:1006A000F000084320602878C00771D05A4A5A4B9E
:1006B00069680120083A2C33022910D003292ED072
:1006C00001292FD05FEA402797FAA7FCBCFA8CFCDF
:1006D0004CF0200C5FEA5C1C04D0126803E04FF47D
:1006E0000037F1E71A6897FAA7F3B3FA83F303F038
:1006F0001F039840024262D0206820F003000843A4
:100700002060FFF7F3FE6968074641F2883002294E
:1007100010D003291CD00129814626D034E04FF0A7
:100720000077D1E70227CFE7FFF7E0FEC11B49457D
:1007300001D926E081462068C0F381000228F3D168
:1007400026E000BFFFF7D2FEC11B494501D918E0E2
:1007500081462068C0F381000328F3D118E000BF70
:10076000FFF7C4FEC11B49450BD82068C0F38100C8
:100770000128F5D10CE022E0FFF7B8FEC11B494586
:1007800002D90320BDE8F087206810F00C0FF3D1E8
:10079000D8F80010404601F00101B14211D9012EF4
:1007A00003D1016841F004010160016821F00101F9
:1007B00031430160006800F00100B04201D0012027
:1007C000E0E72878400705D52068E96820F4E06074
:1007D000084320602878000706D52068296920F49E
:1007E000605040EAC100206000F08AF82168F022E1
:1007F00092FAA2F201F0F001B2FA82F2D140074A75
:10080000515CC840064908600F20FFF793FE0020A6
:10081000B8E70000003C024008380240296E00089A
:10082000E0000020164810B5016841F480710160B5
:10083000134908310A6822F003020A600268114B6A
:100840001A40026000220A60001D01680E4B194028
:1008500041F42041016001684FF4F85494FAA4F483
:100860001023B4FA84F421F4F851A3401943016031
:1008700003480C30026006490448086010BD0000BF
:1008800000380240FEFFFAEEFF1FFF0068FF1F0066
:10089000E00000200148006870470000E0000020F0
:1008A00008480949006809684FF4E06292FAA2F228
:1008B00001F4E061B2FA82F2D140044A515CC840CE
:1008C00070470000E000002008380240396E000840
:1008D00008480949006809684FF4605292FAA2F288
:1008E00001F46051B2FA82F2D140044A515CC8402E
:1008F00070470000E000002008380240396E000810
:100900001E4A116801F00C00042813D0082813D0E7
:100910000C2813D0101F006800F460414FF46040B1
:1009200090FAA0F0B0FA80F0C1404FF40040491CAA
:100930008840704712487047124870474FF4701350
:1009400093FAA3F301F47010B3FA83F3D8400E4B7B
:1009500001F440011268185C4FF4400393FAA3F3CA
:10096000B3FA83F3D940491CD20301D5054A00E00C
:10097000034A5043B0FBF1F07047000008380240D2
:100980000024F40000127A00206E00082DE9F84FD0
:1009900007460078FB4EFC4DC0074FF0010428D0FD
:1009A000F848083001684FF40038C1F3810102298A
:1009B00007D00168C1F3810103291BD10068C0037E
:1009C00018D598FAA8F0B0FA80F040F0200040095D
:1009D00001D0306800E0286898FAA8F1B1FA81F1F6
:1009E00001F01F0104FA01F108425CD07868002888
:1009F0007BD058E0786801280AD008B1052811D0CA
:100A0000306820F480303060306820F4802002E0CC
:100A1000306840F480303060786828B3FFF766FDB6
:100A200081460BE0306840F480203060F0E700BF82
:100A3000FFF75CFDA0EB0900642872D898FAA8F0D3
:100A4000B0FA80F040F02000400901D0306800E0AA
:100A5000286898FAA8F1B1FA81F101F01F0104FAAF
:100A600001F10842E4D01EE0FFF740FD814605E0B9
:100A7000FFF73CFDA0EB09006428DED898FAA8F047
:100A8000B0FA80F040F02000400901D0306800E06A
:100A9000286898FAA8F1B1FA81F101F01F0104FA6F
:100AA00001F10842E4D13878DFF8E08280074FF0A6
:100AB000000B4FF002095FD5B24808300168C1F35E
:100AC0008101012907D00168C1F3810103291CD1EB
:100AD0000068C00319D499FAA9F0B0FA80F040F088
:100AE0002000400902D0306801E086E0286899FAC9
:100AF000A9F1B1FA81F101F01F0104FA01F10842F4
:100B00002BD0F868012878D127E0F868A8B394FAC8
:100B1000A4F0B0FA80F048F82040FFF7E7FC8246E6
:100B200006E066E1FFF7E2FCA0EB0A00022884D8A9
:100B300099FAA9F1B1FA81F141F02001490901D0F6
:100B4000316800E0296899FAA9F0B0FA80F000F065
:100B50001F0004FA00F00142E4D08A48001D016839
:100B60004FF4F85393FAA3F33A69B3FA83F321F4F9
:100B7000F8519A401143016025E0FFE794FAA4F18F
:100B8000B1FA81F148F821B0FFF7B0FC824605E0E8
:100B9000FFF7ACFCA0EB0A000228C8D899FAA9F02C
:100BA000B0FA80F040F02000400901D0306800E049
:100BB000286899FAA9F1B1FA81F101F01F0104FA4C
:100BC00001F10842E4D138784FF4007AC0067CD5B0
:100BD0006C480830006810F00C0F0FD0B9694FF462
:100BE0008070002972D090FAA0F0B0FA80F048F836
:100BF0002040FFF77BFC00907EE087E09AFAAAF0A5
:100C0000B0FA80F040F02000400901D0306800E0E8
:100C100028689AFAAAF1B1FA81F101F01F0104FAE9
:100C200001F1084202D0B86900286FD05548396AEE
:100C3000001D006800F4604081421AD9084600F0A7
:100C40008DFB002862D14F48001D01683A6A21F4EB
:100C500060411143016001684FF07F4393FAA3F3B1
:100C6000FA69B3FA83F321F07F419A40114301609E
:100C700018E04448001D026822F460420A43026002
:100C800001684FF07F4393FAA3F3FA69B3FA83F351
:100C900021F07F419A4011430160386A00F05EFB09
:100CA0000028CFD14FF4604191FAA1F1386AB1FA2E
:100CB00081F1C8404FF40041401C81403148083068
:100CC0000068F02200F0F00001E070E040E092FAED
:100CD000A2F2B2FA82F2D0402D4A105CC1402D48F7
:100CE00001600F20FFF726FC61E000BFFFF7FEFB6D
:100CF0000099401A02287CD89AFAAAF0B0FA80F03B
:100D000040F02000400902D0306801E0BCE12868D2
:100D10009AFAAAF1B1FA81F101F01F0104FA01F186
:100D20000842E3D01748001D01683A6A21F4604187
:100D30001143016001684FF07F4393FAA3F3FA690E
:100D4000B3FA83F321F07F419A40114301602EE012
:100D500090FAA0F0B0FA80F048F820B0FFF7C6FB98
:100D6000009005E0FFF7C2FB0099401A0228C2D8A4
:100D70009AFAAAF0B0FA80F040F0200040090BD0B7
:100D800030680AE000380240343802400000474230
:100D9000296E0008E000002028689AFAAAF1B1FA4A
:100DA00081F101F01F0104FA01F10842DAD138782B
:100DB000000753D5786948B394FAA4F0B0FA80F0EC
:100DC00008EB8000C0F88046FFF790FB009005E03C
:100DD000FFF78CFB0099401A02288CD899FAA9F0E9
:100DE000B0FA80F040F04000B4EB501F02D1306800
:100DF00001E08EE0286899FAA9F1B1FA81F101F0D9
:100E00001F0104FA01F21042E2D027E094FAA4F1A3
:100E1000B1FA81F108EB8101C1F880B6FFF766FBFA
:100E2000009005E0FFF762FB0099401A022870D895
:100E300099FAA9F0B0FA80F040F04000B4EB501FEE
:100E400001D1306800E0286899FAA9F1B1FA81F17E
:100E500001F01F0104FA01F21042E3D13878400793
:100E60007BD59B484FF000090068C0000AD4984821
:100E7000016841F08051016000684FF0010900F005
:100E80008050009093480168C90511D4016841F46D
:100E900080710160FFF72AFB009005E0FFF726FB59
:100EA0000099401A642834D88A480068C005F5D5EE
:100EB000B86801280AD008B1052811D0286820F4A4
:100EC00080702860286820F4806002E0286840F480
:100ED00080702860B86848B3FFF708FB00900DE009
:100EE000286840F480602860F0E700BFFFF7FEFA52
:100EF0000099411A41F2883081420AD89AFAAAF040
:100F0000B0FA80F040F04000B4EB501F02D13068DE
:100F100001E095E028689AFAAAF1B1FA81F101F0AE
:100F20001F0104FA01F21042E0D022E0FFF7DEFADE
:100F3000009007E0FFF7DAFA0099411A41F2883091
:100F400081427DD89AFAAAF0B0FA80F040F04000D1
:100F5000B4EB501F02D1306801E012E028689AFA21
:100F6000AAF1B1FA81F101F01F0104FA01F2104275
:100F7000E0D1B9F1000F04D05548016821F080514B
:100F80000160786AE8B3DFF84891A9F11C09D9F843
:100F90000010C1F38101032976D002284FF080713F
:100FA0004FF0007A58460BD091FAA1F1B1FA81F1D5
:100FB00048F82100FFF79AFAB046074656466DE01A
:100FC0004FF0807191FAA1F1B1FA81F18A004249A2
:100FD0005050FFF78BFAB3468046564606E000BFF6
:100FE000FFF784FAA0EB0800022854D896FAA6F07E
:100FF000B0FA80F040F02000400903D0DBF8000098
:1010000001E061E0286896FAA6F1B1FA81F101F0F9
:101010001F0104FA01F10842E2D1D7E90A103A6B44
:10102000D9F80030014323F47D031A431143C9F872
:1010300000104FF0807090FAA0F0B0FA80F000E05D
:1010400029E0810024480C50FFF750FA074604E0DD
:10105000FFF74CFAC01B02281DD896FAA6F0B0FA8A
:1010600080F040F02000400902D0DBF8000000E0F2
:10107000286896FAA6F1B1FA81F101F01F0104FA8D
:1010800001F10842E4D01FE020E000BFFFF72EFA94
:10109000C01B022802D90320BDE8F88F96FAA6F0FB
:1010A000B0FA80F040F02000400902D0D8F80000EB
:1010B00000E0286896FAA6F1B1FA81F101F01F016B
:1010C00004FA01F10842E1D10020E5E70120E3E75D
:1010D0002438024000700040000047424FF0E021F9
:1010E0000428086903D020F004000861704740F02C
:1010F0000400FAE710B5401EB0F1807F01D3012053
:1011000010BD4FF0E02460610F21601700F016F968
:101110000020A06107202061002010BD70B50400F0
:1011200004D094F83900002510B106E0012070BD0C
:1011300084F83850204600F021F8022084F8390065
:101140002068C16821F40051C160204600F0E8F930
:101150002068016921F4904101612068416921F012
:101160002A0141612068C16841F40051C160E56312
:10117000012084F83900002070BD0000F0B54F490F
:1011800087B00A6842F020020A600A6802F0200272
:1011900005920A6842F004020A600A6802F004023A
:1011A00005920A6842F001020A600A6802F0010230
:1011B00005920A6842F002020A600A68012302F0FE
:1011C000020205923E4A07680220032607243D4D8D
:1011D000974225D10A1D176847F4804717601268A7
:1011E00002F4804205920A6842F001020A6009682E
:1011F000CDE9023601F0010105910102CDE90010AF
:10120000049469462846FFF7ABF828150090694614
:1012100004942846FFF7A4F800221146252026E072
:10122000264ADFF8A4C00832674524D1176847F47E
:1012300000371760126802F4003205920A6842F023
:1012400001020A600968CDE9023601F00101059149
:101250000C21CDE90010049469462846FFF780F878
:1012600069462846FFF77CF8002211462620FFF742
:10127000BDF907B0F0BD154DAF42FAD1156845F480
:1012800080251560126802F4802205920A6842F0F7
:1012900002020A600968CDE9023601F002010591F7
:1012A0004FF44061CDE90010049469460848FFF707
:1012B00057F8002211462720D9E700001C380240C9
:1012C0000038014000000240004400400048004057
:1012D0000008024010B504464FF4E1306060002081
:1012E000A0600C21E060C4E90401A061E061204637
:1012F000FFF714FF28B140F24F12054905A002F094
:1013000077F82068C16841F02001C16010BD00007D
:101310000D6E000848414C5F554152545F496E695B
:1013200074287561727448616E646C6529203D3D56
:101330002048414C5F4F4B00FEE770470907090EFC
:10134000002806DA00F00F0000F1E02080F8141DFC
:10135000704700F1E02080F80014704738B51C4950
:10136000002309681B4A11F0F00F23D118491C31E2
:101370000C68E500184C03D5216801F4C0540EE058
:101380000D6845F080550D600D6805F0805500959D
:1013900024680D6804F4C05425F080550D60B4F540
:1013A000C05F07D1B0F5404F04D11068012340F071
:1013B00004001060106820F00100184310601068ED
:1013C00000F00100984201D0012038BD002038BD56
:1013D00008380240003C024000700040704710B5E1
:1013E00003F01EF9FFF788F804F082FFBDE8104013
:1013F00003F02EB910B594B014210DA8FEF727FF05
:1014000034216846FEF723FFFFF70CFA0121039110
:1014100002201021009000240491CDE90904400429
:101420000B9000010C906846FFF7B0FA00B1FEE7A0
:101430002548016841F080510160016801F0805148
:10144000129122490A6822F4C05242F400620A60F2
:10145000026842F000420260026802F0004212920A
:10146000021F136843F001031360126802F00102C7
:101470001292026842F080520260006800F08050D0
:1014800012904868C043C006FBD50F200D90032082
:10149000CDE90E04109401210DA81194FFF7D8F89E
:1014A00000B1FEE7FFF7F6F94FF47A71B0FBF1F007
:1014B000FFF720FE0420FFF711FE00220F21501E2F
:1014C000FFF794F814B010BD2438024000700040BB
:1014D0000F48016841F4807101600D4908310A68C4
:1014E0000C4B1A400A6002680B4B1A4002600268FB
:1014F00022F480220260086820F47D000860002049
:10150000091D086005494FF0006008607047000041
:10151000003802400CC0FF88FEFFFEEE08ED00E040
:101520002DE9F041044600680169E26821F4405168
:10153000114301612169A068E269084361691143AF
:1015400008432168CA6849F20C639A430243CA609F
:1015500020684169A26921F4407111434161E16948
:101560006425B1F5004F954821684FF032083DD011
:1015700081427AD1FFF7ACF900EBC00101EB00101A
:1015800061688900B0FBF1F6FFF7A2F900EBC0013A
:1015900001EB001061688900B0FBF1F0B0FBF5F0E1
:1015A0006FF01801484306EB800108EB0110B0FB17
:1015B000F5F000F0F006FFF78BF900EBC00101EB4E
:1015C000001061688900B0FBF1F0B0FBF5F006EBAC
:1015D0000016FFF77DF900EBC00101EB0010616818
:1015E0008900B0FBF1F7FFF773F9D0E081423DD1FC
:1015F000FFF76EF900EBC00101EB001061684900D4
:10160000B0FBF1F0B0FBF5F00601FFF761F900EB7C
:10161000C00101EB001061684900B0FBF1F7FFF772
:1016200057F900EBC00101EB001061684900B0FB05
:10163000F1F0B0FBF5F06FF01801484307EB8001C3
:1016400008EBC100B0FBF5F000F0F80006EB400637
:10165000FFF73EF900EBC00101EB001061684900A3
:10166000B0FBF1F7FFF734F93CE055E0FFF718F96C
:1016700000EBC00101EB001061684900B0FBF1F024
:10168000B0FBF5F00601FFF70BF900EBC00101EB31
:10169000001061684900B0FBF1F7FFF701F900EBBA
:1016A000C00101EB001061684900B0FBF1F0B0FB34
:1016B000F5F06FF01801484307EB800108EBC1001B
:1016C000B0FBF5F000F0F80006EB4006FFF7E8F895
:1016D00000EBC00101EB001061684900B0FBF1F7BD
:1016E000FFF7DEF800EBC00101EB00106168490074
:1016F000B0FBF1F0B0FBF5F06FF01801484307EBD9
:10170000800108EBC100B0FBF5F000F00700216894
:1017100030448860BDE8F081FFF7C2F800EBC001FB
:1017200001EB001061688900B0FBF1F6FFF7B8F833
:1017300000EBC00101EB001061688900B0FBF1F023
:10174000B0FBF5F06FF01801484306EB800108EBA1
:101750000110B0FBF5F000F0F006FFF7A1F800EB88
:10176000C00101EB001061688900B0FBF1F0B0FB33
:10177000F5F006EB0016FFF793F800EBC00101EB64
:10178000001061688900B0FBF1F7FFF789F800EB02
:10179000C00101EB001061688900B0FBF1F0B0FB03
:1017A000F5F06FF01801484307EB800108EB0110DA
:1017B000B0FBF5F000F00F00A9E700000038014091
:1017C00010B502F02DFF034805F05AFABDE81040AD
:1017D00002F03EBF940C002010B502F021FF034838
:1017E00005F04EFABDE8104002F032BFE80C0020D0
:1017F00010B502F015FF034805F042FABDE81040AD
:1018000002F026BF3C0D0020FEE70000002806D0B5
:101810000E4910F0FF0F03D0C0B2085C401C7047A7
:1018200010F47F4F04D0C0F30720085C09307047E4
:1018300010F47F0F04D0C0F30740085C11307047EC
:1018400001EB106000781930704700009E700008AE
:1018500002E008C8121F08C1002AFAD17047704779
:10186000002001E001C1121F002AFBD170470000D7
:1018700003480168814201D0012070470020704771
:10188000B8010020F0B597B0064650221A4902A8C8
:10189000FEF7C4FC19A7384604F058F90446304650
:1018A00001F03CFC0546A04200DA25463A462946AE
:1018B00014A002F011FF284601F04AFC1BA002F020
:1018C0000BFF02AF346811E0207AA17BA4F10C0376
:1018D000132802D857F8200000E01598CDE9000140
:1018E000082229461AA002F0F7FE2468B442EBD180
:1018F00017B00020F0BD00008475000864657669AB
:1019000063650000252D2A2E732020202020202012
:101910002020747970652020202020202020207233
:10192000656620636F756E740A000000202D2D2DF2
:101930002D2D2D2D2D2D2D2D2D2D2D2D2D2D2D2DD7
:101940002D202D2D2D2D2D2D2D2D2D2D0A0000007E
:10195000252D2A2E2A7320252D32307320252D384F
:10196000640A00002DE9FC41064601F0D7FB8046E1
:1019700001461BA21CA002F0AFFE404601F0E8FBAE
:1019800022A002F0A9FE346825E000BFA16804F19E
:101990000800A4F10C05814214D005F1140007469B
:1019A00002F0E1FEE969CDE900102B46082241462C
:1019B0001EA002F091FE384604F0F8FF214802F024
:1019C0008BFE07E0E86900902B46082241461EA0E6
:1019D00002F082FE2468B442D8D10020BDE8FC8128
:1019E0006576656E74000000252D2A2E7320202058
:1019F0002020207365742020202073757370656E1D
:101A000064207468726561640A00000020202D2D36
:101A10002D2D2D2D2D2D2D2D202D2D2D2D2D2D2D03
:101A20002D2D2D2D2D2D2D0A00000000252D2A2EC7
:101A30002A73202030782530387820253033643AD6
:101A400000000000C81C0008252D2A2E2A73202023
:101A500030782530387820300A0000002DE9FC412C
:101A6000074623A6304604F071F80446384601F0D4
:101A700055FB0546A04200DA2546324629461FA0FE
:101A800002F02AFE284601F063FB23A002F024FEA8
:101A90003E6827E0B16806F10800A6F10C04814217
:101AA00004F1140012D0804602F05DFEA18CCDE955
:101AB00000102346082229461DA002F00DFE4046D4
:101AC00004F074FF1FA002F007FE0AE002F04BFED4
:101AD000A18CCDE900102346082229461AA002F065
:101AE000FBFD3668BE42D5D10020BDE8FC81000078
:101AF0006D7367717565756500000000252D2A2ED0
:101B00007320656E7472792073757370656E6420CE
:101B10007468726561640A00202D2D2D2D20202D02
:101B20002D2D2D2D2D2D2D2D2D2D2D2D2D0A000062
:101B3000252D2A2E2A732025303464202025643A4E
:101B4000000000000A000000252D2A2E2A732025FF
:101B5000303464202025640A000000002DE9FF4194
:101B6000054601F0DBFA8046014613A214A002F0FC
:101B7000B3FD404601F0ECFA1AA002F0ADFD0826D4
:101B80002C6812E0A4F10C0704F1080002F0EBFD50
:101B9000F97F3A6A03900096CDE901213B4608227D
:101BA000414618A002F098FD2468AC42EAD104B086
:101BB0000020BDE8F08100006D75746578000000BC
:101BC000252D2A2E732020206F776E6572202068C5
:101BD0006F6C642073757370656E642074687265D1
:101BE00061640A00202D2D2D2D2D2D2D2D202D2D24
:101BF0002D2D202D2D2D2D2D2D2D2D2D2D2D2D2D22
:101C00002D0A0000252D2A2E2A7320252D382E2A54
:101C10007320253034642025640A00002DE9FC413E
:101C2000074601F07BFA0646092800DA09261DA2BC
:101C300031461FA002F050FD304601F089FA23A082
:101C400002F04AFD3D6827E0A96805F10800A5F10A
:101C50000C04814204F1140012D0804602F083FD8E
:101C6000A18BCDE900102346082231461DA002F0C9
:101C700033FD404604F09AFE13A002F02DFD0AE069
:101C800002F071FDA18BCDE90010234608223146F8
:101C900018A002F021FD2D68BD42D5D10020BDE87D
:101CA000FC81000073656D6170686F7265000000F3
:101CB000252D2A2E73207620202073757370656E73
:101CC00064207468726561640A000000202D2D2D67
:101CD000202D2D2D2D2D2D2D2D2D2D2D2D2D2D0A64
:101CE00000000000252D2A2E2A7320253033642081
:101CF00025643A00252D2A2E2A73202530336420AE
:101D000025640A002DE9FC41064601F007FA074662
:101D1000014626A2274802F0DFFC384601F018FAF7
:101D200025A002F0D9FC35683AE000BF95F82900FB
:101D3000A5F10C0400902346082239462EA002F09B
:101D4000CBFC94F8340000F00F00012805D00228E5
:101D500005D030B1042806D008E02AA004E02CA069
:101D600002E02EA000E030A002F0B6FCA06A01461E
:101D700000E0401C0278232AFBD0E26A401A101AC5
:101D800064235843B0FBF2F3D4F830C0A06CCDE923
:101D9000000CE069081A811826A002F09DFC2D684D
:101DA000B542C3D10020BDE8FC81000074687265B3
:101DB0006164000030770008202D2D2D20202D2D6E
:101DC0002D2D2D2D2D202D2D2D2D2D2D2D2D2D2D50
:101DD000202D2D2D2D2D2D2D2D2D2D20202D2D2D5A
:101DE0002D2D2D20202D2D2D2D2D2D2D2D2D2D204A
:101DF0002D2D2D0A00000000252D2A2E2A732025C6
:101E000033642000207265616479202000000000A6
:101E10002073757370656E640000000020696E6940
:101E2000742020200000000020636C6F7365202068
:101E300000000000203078253038782030782530B8
:101E4000387820202020253032642525202020309D
:101E5000782530387820253033640A002DE9FC419C
:101E6000054601F05BF90646014616A217A002F0EE
:101E700033FC304601F06CF91EA002F02DFC2C68FA
:101E800015E000BFA4F10C031F460822D7E90901A1
:101E9000CDE90001314620A002F01EFC787AC0078F
:101EA00001D023A000E025A002F016FC2468AC427B
:101EB000E8D104F017FA014624A002F00DFC00203E
:101EC000BDE8FC8174696D6572000000252D2A2E25
:101ED000732020706572696F6469632020207469C3
:101EE0006D656F757420202020202020666C61674E
:101EF0000A000000202D2D2D2D2D2D2D2D2D2D20D6
:101F00002D2D2D2D2D2D2D2D2D2D202D2D2D2D2D0E
:101F10002D2D2D2D2D2D0A00252D2A2E2A73203012
:101F20007825303878203078253038782000000047
:101F30006163746976617465640A00006465616355
:101F4000746976617465640A0000000063757272DA
:101F5000656E74207469636B3A3078253038780A7E
:101F6000000000002DE9F04F8BB017468B460600AD
:101F70004FF0000405D140F22112254925A001F0BF
:101F800037FA3FB94FF49172214923A001F030FA9A
:101F900000E0641C305D202803D0092801D05C4596
:101FA000F7D34FF0FF3984B31D4804F1060ADFF878
:101FB0007480056811E006221BA12868FEF77BF9F2
:101FC00050B9286822463146801DFEF774F918B9C9
:101FD000296811F80A0028B10C35D8F800008542AC
:101FE000E9D313E0AC6884B128216846FEF72FF9E5
:101FF0006A465946304601F029F830B16946A04793
:10200000386000200BB0BDE8F08FFFE74846F9E7E5
:10201000D4750008636D6400726574700000000080
:10202000F8010020FC0100205F5F636D645F000029
:1020300010B5040004D15922114912A001F0D8F9B9
:10204000A06A0178232906D1E169814203D9E26AB5
:1020500002448A420AD221460FA002F03DFB00F062
:1020600000FEFEF763F80028FDD110BD203081424C
:10207000FBD82146BDE810400EA002F02DBB0000A9
:102080007372000874687265616420213D205254A7
:102090005F4E554C4C0000007468726561643A25CF
:1020A0007320737461636B206F766572666C6F77F3
:1020B0000A0000007761726E696E673A202573200E
:1020C000737461636B20697320636C6F7365207434
:1020D0006F20656E64206F6620737461636B20618E
:1020E0006464726573732E0A000000002DE9FC41E0
:1020F0001F460446DDE90831DDE90A651430406019
:102100000060C4E90827C4E90A310A4623211846B9
:1021100002F082FCD4E90A014218D4E90801154B07
:10212000121F02F00FFAE061202E04D39E22124902
:1021300012A001F05DF984F8366084F83560002063
:102140006564A063A564206384F83400A067E06739
:10215000009023460190124A194604F14C0004F005
:1021600069F91048816809B1204688470020BDE818
:10217000FC810000A55D0008C17200087072696FE3
:1021800072697479203C2052545F5448524541444E
:102190005F5052494F524954595F4D415800000019
:1021A0008D610008C001002010B5029C24F00104DC
:1021B0004472C0E907120021C0E9093114304060BF
:1021C000006010BDF0E905124A60D0E9001211600C
:1021D00040600060704700002DE9F04717468846D0
:1021E000050002D0B8F1000F05D14FF4E372374972
:1021F00037A001F0FDF8FDF799FF81463F49A86C33
:10220000084202D1EC6C3CB10CE02846EE6C01F0C7
:10221000B1FD04465EB330E04FF4E8722B4938A0BC
:1022200001F0E6F82068012817D001202060286C12
:10223000006928B940F2D512244936A001F0D8F837
:10224000286C01233A46046941462846A04748467F
:10225000FDF770FF3846BDE8F0876FF0060448468A
:10226000FDF768FF204603F0CBFB0020F3E740F2C8
:10227000E512164931A001F0BBF8A74200D23C4656
:10228000F088A96C0219C1F38F218A4204D2316807
:102290002246014440460EE00A1A31680144404695
:1022A00002F07AFBF088A96C0219C1F38F21521A4F
:1022B0004144081A316802F06FFB2146284601F0BC
:1022C00083FD4846FDF736FF2046C4E7EF7400085B
:1022D0002873657269616C20213D2052545F4E5510
:1022E0004C4C2920262620286461746120213D2041
:1022F00052545F4E554C4C290000000000FCFF0377
:1023000072785F646D6120213D2052545F4E554CC0
:102310004C00000073657269616C2D3E6F70732D07
:102320003E646D615F7472616E736D697420213DEE
:102330002052545F4E554C4C0000000072785F668E
:1023400069666F20213D2052545F4E554C4C000071
:102350002DE9F04715460F46060005D140F215124B
:102360001D491E4801F044F8F46CA8464FF0000ADD
:1023700064BB40F219121849194801F039F825E0F8
:10238000FDF7D4FE0146E088A288904201D1A26800
:1023900082B1226812F80090401C80B2E080B26CDA
:1023A000C2F38F22904201D3A4F806A0A0680128AE
:1023B00004D005E00846FDF7BDFE09E0C4F808A01A
:1023C0000846FDF7B7FE07F8019B6D1E002DD7D11B
:1023D000A8EB0500BDE8F0877A740008CC58000827
:1023E000B43D000810B51BA002F076F91C4C217812
:1023F0001CA002F071F92078C00702D01FA002F0E3
:102400006BF92078800702D51FA002F065F92078CB
:10241000400702D51FA002F05FF92078000702D51F
:1024200020A002F059F92078C00602D520A002F0C1
:1024300053F92078000607D509480F300168BDE838
:1024400010401DA002F048B9BDE810401EA002F0E7
:1024500043B90000627573206661756C743A0A00B6
:1024600029ED00E05343425F434653525F424653D7
:10247000523A3078253032582000000049425553F6
:1024800045525220000000005052454349534552E6
:1024900052200000494D5052454349534552522065
:1024A00000000000554E53544B455252200000008E
:1024B00053544B45525220005343422D3E42464115
:1024C000523A253038580A000A00000010B500F0D2
:1024D00077FB002010BD10B500F0C3FB002010BD3D
:1024E0000020704710B500F0AFFD08B105A100E075
:1024F00006A10848FDF7D6FE07A10648FDF7B2FE83
:10250000044810BD6D7368200000000066696E739A
:1025100068200000301400203E00000010B5064C7A
:10252000206820B96722054905A000F061FF2068F6
:1025300002F072FE002010BDF4010020F0750008CA
:102540007368656C6C20213D2052545F4E554C4C95
:102550000000000070B5204C0646206820B97A22A1
:102560001E491FA000F044FF304601F0BBFA0500F1
:102570002BD02068D0F80802A8422CD040F243119A
:10258000284601F0EDFA002825D12068D0F808028D
:1025900038B101F079FA20680021D0F8080201F082
:1025A000A1FB2068502100F5DB70FDF750FE20688C
:1025B000002180F8061280F80712C0F80852284659
:1025C000BDE870400B4901F08DBB3146BDE870405D
:1025D00009A002F081B870BDF4010020FD7500086B
:1025E0007368656C6C20213D2052545F4E554C4CF5
:1025F000000000001D25000866696E73683A2063BC
:10260000616E206E6F742066696E64206465766901
:1026100063653A2025730A00024A1060024801608F
:1026200070470000F8010020FC0100207FB5184928
:102630001848FFF7F1FF4FF40375284602F0AEF893
:10264000154C2060B8B12946FDF701FE00231A465B
:1026500012A1206802F0BCFD12480A2314224FF494
:1026600000718DE80F0000230F4A10A1803803F09D
:102670004DFC38B10AE00FA002F02EF84FF0FF3009
:1026800004B070BD0748803803F0F2FC0020F7E783
:10269000547D0008287C0008F401002073687278DB
:1026A0000000000034150020CD2600087473686512
:1026B0006C6C00006E6F206D656D6F727920666FB7
:1026C00072207368656C6C0A00000000E34C08B56A
:1026D00020684FF0010980F82190D0F8080220B955
:1026E00000F0C6FF08B1FFF735FFFFF7FBFE01F072
:1026F000F3FF4FF0FF374FF0000A206820B95C224B
:10270000D749D8A000F074FE4FEA04080123D8F896
:1027100000006A463946D0F8080201F099FA01280B
:1027200005D03946D8F8000002F098FDEEE79DF894
:1027300000601B2E08D0D8F8000090F82010012966
:1027400007D002290ED017E0D8F8001081F82090A9
:10275000D3E75B2E02D080F820A00DE0022180F8A4
:102760002010CAE780F820A0412E43D0422E5FD02F
:10277000442E7DD0432E7CD0002EBED0FF2EBCD068
:10278000092E77D07F2E76D0082E74D00D2E73D0E0
:102790000A2EFCD090F80612502902D3514680F838
:1027A00006A290F80732C9B28B4266D2CA1A00F567
:1027B000DB7100F2B7101944184402F013F9D8F88D
:1027C000000090F8071200F5DB700E54D8F80000F6
:1027D00090F82110C90707D090F8071200F5DB70B8
:1027E0000144A5A001F078FFD8F80000454690F814
:1027F00007620AE1418C0029AAD0491E89B24184AE
:1028000001EB810100EB0111502200F5DB70263154
:10281000FDF704FDD8F8000000F5DB70FDF72EFD94
:102820000146D8F8000080F8061280F807122AE066
:10283000828C418C1346521E914202DA491C41841B
:1028400002E0002B84D04284418C502201EB8101B4
:1028500000EB011100F5DB702631FDF7DFFCD8F845
:10286000000000F5DB70FDF709FDD8F8001005E069
:102870000CE018E02BE054E09BE0CCE081F806028D
:1028800081F80702084604F023F836E790F80702BB
:102890000028FAD079A001F01FFFD8F8000090F8C6
:1028A0000712491E10E090F8071290F80622914294
:1028B000EBD200F5DB70095C71A001F00DFFD8F8D8
:1028C000000090F80712491C80F8071215E7002550
:1028D00003E06AA001F000FF6D1CD8F8000090F83A
:1028E0000702A842F5DCD8F8005066A005F5DB75B4
:1028F00001F0F2FE00F0A8FB012802D1284600F00A
:10290000DFFAFFF7EFFD01462A465FA001F0E4FE83
:10291000D8F8000000F5DB70FDF7B0FCD8F8001027
:1029200096E090F807120029AFD090F80622491ED1
:10293000521ED2B2C9B280F8062280F807128A422B
:102940002BD900F2B71300F5DB70521A0B44084480
:10295000194602F047F8D8F8000090F8062200F572
:10296000DB7002F800A0D8F8000090F8071200F51C
:10297000DB70014446A001F0AFFED8F8000090F8EB
:10298000075203E03DA001F0A7FE6D1CD8F800003F
:1029900090F80602A84299DBF4E73FA001F09CFE04
:1029A000D8F8001091F8062201F5DB7102F801A0B9
:1029B000A3E603F0A3FF00F047FB012810D1D8F8ED
:1029C000000090F82100C00702D02EA001F084FE84
:1029D000D8F8000090F8061200F5DB7000F0C6FA97
:1029E000FFF780FD01F078FED8F80000502100F5D7
:1029F000DB70FDF72CFCD8F80000514680F806A2E9
:102A000062E71EA001F068FE761C286890F80602B6
:102A1000B042F6DC0CE000F5DB700E54D8F8000094
:102A200090F82100C00703D0314615A001F054FEF4
:102A3000D8F8001091F80602401CC0B281F80602D6
:102A400091F80722521C81F807225028B0D3504633
:102A500081F8060281F807024FE60000F401002029
:102A6000E27500087368656C6C20213D2052545F4C
:102A70004E554C4C0000000025730000080000007B
:102A8000256300000A000000257325730000000084
:102A900008257320200800000820080010B5124CFB
:102AA0002068800702D511A001F016FE20684000C2
:102AB00011D50D48C01E007808B1FFF793FC0A48F5
:102AC000001F007808B100F08FF90748801E0088C9
:102AD00008B104F001F92068002804DABDE81040CC
:102AE00008A001F0F9BD10BD2CED00E06661696C35
:102AF000656420766563746F722066657463680A26
:102B0000000000006465627567206576656E740A72
:102B10000000000010B502A001F0DEFD002010BD95
:102B200048656C6C6F2052542D5468726561642145
:102B30000A0000000020704770B50CA001F0CCFD29
:102B40000F48104D04680BE002220FA12068FDF72A
:102B5000B2FB20B1D4E900120CA001F0BDFD0C3491
:102B600028688442F0D3002070BD00002D2D4675EA
:102B70006E6374696F6E204C6973743A0A000000CA
:102B8000F8010020FC0100205F5F0000252D313698
:102B900073202D2D2025730A0000000010B5082099
:102BA00002F006FABDE81040001DFEF76BBE10B53E
:102BB000032002F0FDF9BDE81040001DFEF7D2BE73
:102BC00010B5074C07A0616901F086FD0AA0A16954
:102BD00001F082FDE169BDE810400CA001F07CBD70
:102BE00004010020746F74616C206D656D6F7279E3
:102BF0003A2025640A00000075736564206D656DD8
:102C00006F7279203A2025640A0000006D617869AE
:102C10006D756D20616C6C6F6361746564206D65AA
:102C20006D6F72793A2025640A00000010B5052006
:102C300002F0BEF9BDE81040001DFEF70FBF10B551
:102C4000022002F0B5F9BDE81040001DFEF786BF76
:102C500010B5012002F0ACF9BDE81040001DFEF7F0
:102C6000DDBF10B5002002F0A3F9BDE81040001D43
:102C7000FFF748B810B5092002F09AF9BDE81040F6
:102C8000001DFFF7EBB800007FB533A000F02AFF6E
:102C9000334CA06033A000F025FFE060A16800295C
:102CA0002DD000282BD031A001F016FD3849A068A6
:102CB00001F018F805460321E06800F051FF0543D4
:102CC00040F20311A06800F04BFF054300230222ED
:102CD00030A1324802F07CFA054300214FF48060B5
:102CE0002F4ACDE900017C232EA102F5166001F0E8
:102CF000B7FE284303D004B04FF0FF3070BD2C491D
:102D0000206800910A25CDE9010524480023294ABD
:102D100029A15430039503F0F9F82048543003F00A
:102D2000A7F961680B20274ACDE90205CDE900210A
:102D30001A480023244A25A1D43003F0E7F81748A5
:102D4000D43003F095F941F28834204603F0B8FA04
:102D500003F026F8F9E70000756172743200000094
:102D60000000002075617274310000002B2B2B2BAA
:102D70002B2B20756172743120616E642075617235
:102D80007432207375636365737366756C0D0A0026
:102D9000396C000873656D5F31000000400B002046
:102DA000000200206D736771756575655F31000005
:102DB00040060020AD6B00087468726561645F3185
:102DC0000000000040070020CD6B000874687265A9
:102DD00061645F320000000010B500F03BFCBDE80C
:102DE0001040FFF751BF000010B518A001F074FCAF
:102DF0001B4C21781BA001F06FFC2078C00702D08B
:102E00001EA001F069FC2078800702D51EA001F009
:102E100063FC2078000702D51EA001F05DFC20783D
:102E2000C00602D51EA001F057FC2078000607D589
:102E30000B480C300168BDE810401CA001F04CBCF0
:102E4000BDE810401D4801F047BC00006D656D20D5
:102E50006D616E616765206661756C743A0A000089
:102E600028ED00E05343425F434653525F4D4653C3
:102E7000523A30782530325820000000494143430F
:102E800056494F4C200000004441434356494F4CA3
:102E9000200000004D554E53544B45525220000027
:102EA0004D53544B45525220000000005343422DD5
:102EB0003E4D4D41523A253038580A00486D0008C1
:102EC0002DE9F0478046002500782C4618B12248AD
:102ED000224F066831E0BDE8F0470021084600F0C7
:102EE00077B806221EA13068FDF7E5F920BB3068EF
:102EF00000F106094046FDF7C1F902464946404641
:102F0000FDF7D9F9C0B925B94C464846FDF7B6F9E1
:102F100005464946204601E0401C491C02781AB18A
:102F20000B780BB19A42F7D0001BA84200DA054695
:102F300049460DA001F0D0FB0C3638688642D0D34C
:102F4000002C06D02A4621464046BDE8F04702F054
:102F500015BEBDE8F0870000F8010020FC0100204C
:102F60005F5F636D645F000025730A0038B5044637
:102F700001E0491E641C20782028FAD00928F8D0E6
:102F800031B16A462046FEF7EDFF18B1204604E055
:102F9000002038BD009838BD401C0178202901D0A0
:102FA0000029F9D100210170214603A001F094FB12
:102FB0004FF0FF3038BD000025733A20636F6D6D10
:102FC000616E64206E6F7420666F756E642E0A00E9
:102FD00070B50EA001F080FB1348144D04680CE09E
:102FE000062213A12068FDF766F928B9D4E900127A
:102FF00011A0891D01F070FB0C3428688442EFD3C6
:1030000010A001F069FB002070BD000052542D5447
:103010006872656164207368656C6C20636F6D6DA8
:10302000616E64733A0A0000F8010020FC01002080
:103030005F5F636D645F0000252D313673202D20A6
:1030400025730A000A0000000120704770B50023B4
:1030500015461C461A464BE000F8012B5B1C06780F
:10306000202E01D0092E01D18B42F5D30A2C11D389
:1030700021A001F031FB002606E000BF55F8261024
:1030800025A001F029FB761CA642F7D321A001F070
:1030900023FB2FE08B422DD2F6B2222E03D045F82F
:1030A0002400641C1BE0401C45F824005B1C641CCD
:1030B00008E05C2E04D14678222E01D1401C5B1C16
:1030C000401C5B1C0678222E01D08B42F1D38B4230
:1030D00010D200F8012B5B1C0AE0401C5B1C067838
:1030E000202E03D0092E01D08B42F6D38B4201D281
:1030F0008B42B4D3204670BD546F6F206D616E79E2
:1031000020617267732021205765206F6E6C7920D3
:103110005573653A0A0000002573200070B5064615
:10312000002500F0D1FE346808E000BFA4F10C00D7
:1031300002F00CFDA84200DD05462468B442F5D13A
:1031400000F0D0FE082D00DC05B90825284670BD2A
:1031500010B5044602E003A001F0BEFA641EFAD2E4
:1031600010BD00002D00000070B5204D0446A86879
:10317000844204D2A2221E491EA000F039F9E86858
:10318000844204D3A3221A4922A000F031F96088B6
:1031900020B1A42216492AA000F02AF96168A86883
:1031A00001448C420FD04A886AB9EA6891420AD039
:1031B0002A698A4200D12C614A6862604B6800F13A
:1031C0000801221A5A50A1680144A1420CD04A8831
:1031D000002A09D12A69A24200D1296162684A60A5
:1031E000091A62680830115070BD00000401002007
:1031F000C87100082872745F75696E74385F742036
:103200002A296D656D203E3D20686561705F707490
:10321000720000002872745F75696E74385F7420E4
:103220002A296D656D203C202872745F75696E7463
:10323000385F74202A29686561705F656E640000DC
:103240006D656D2D3E75736564203D3D2030000039
:103250002DE9F04F85B09946DDE90EA5109C630677
:1032600002D5DFF814C103E0DFF80CC1ACF1110C9A
:10327000E30601D524F00104E30701D0302300E088
:10328000202300260493A3070BD5002A02DA2D265B
:10329000524206E0630701D52B2602E0230700D542
:1032A000202600234FF0300EEB461AB98DF800E0CF
:1032B00001230CE0B9F10A0F14D002F00F08120933
:1032C0001CF808800BF803805B1C002AF2D1AB428B
:1032D00000DD1D46AAEB050214F0110F4FF0200788
:1032E00008D015E00A27B2FBF7F807FB1828B2FB55
:1032F000F7F2E5E73EB1002A05DD521E03E0884201
:1033000000D80770401CB2F1000CA2F10102F6DCFB
:1033100026B1884201D80670521E401CE40605D52D
:1033200008E0884201D8049C0470401C141EA2F1DD
:103330000102F6DC74462E466D1E9E420ADD88426E
:1033400000D80470401CF6E7884201D8E55C05709F
:10335000401C00E05C461D1EA3F10103F4DC03E009
:10336000884200D80770401C131EA2F10102F7DC4E
:1033700005B0BDE8F08F0000AF710008BFF34F8FBC
:1033800005480168054A01F4E06111430160BFF39B
:103390004F8F00BFFDE700000CED00E00400FA05D0
:1033A0001CB514210A20CDE900014FF4006300226E
:1033B000074908A002F0D0FC040004D1D12207493B
:1033C00007A000F015F82046BDE81C4002F050BEF2
:1033D000D92D00086D61696E00000000416E000883
:1033E00074696420213D2052545F4E554C4C0000BE
:1033F00038B500238DF80030094B9C6824B101B02A
:10340000A446BDE83040604713460A46014605A081
:1034100001F062F99DF800000028FBD038BD0000E3
:10342000F800002028257329206173736572746980
:103430006F6E206661696C65642061742066756ECC
:103440006374696F6E3A25732C206C696E65206E0B
:10345000756D6265723A2564200A000070B504003B
:1034600004D172220F4910A0FFF7C2FF2068012883
:1034700016D0FCF75BFE0546012001C42068A0427F
:1034800009D0143802F082FD2846FCF753FEBDE84F
:10349000704001F0F5BD2846BDE87040FCF74ABE1B
:1034A00070BD0000FC730008636F6D706C6574691B
:1034B0006F6E20213D2052545F4E554C4C00000051
:1034C00010B5040004D12322064907A0FFF790FF9E
:1034D000FCF72CFE002102C464602460BDE81040AB
:1034E000FCF728BED6730008636F6D706C65746955
:1034F0006F6E20213D2052545F4E554C4C00000011
:103500002DE9F341040004D132222D492DA0FFF70B
:103510006FFF002702F072FD0546FCF707FE8046AC
:1035200020680026012840D06168201D814204D017
:103530003B22234929A0FFF75BFF019800283BD0DD
:1035400028462E6302F0E6FDA26805F11400211D55
:103550001060A268AA61A0606961FCF7E7FD0746F8
:1035600001F070F840B1164928A001F0B5F84E22DC
:10357000134930A0FFF73CFF3846FCF7DBFD01980C
:10358000002809DD05F14C0001AA0021074602F0E0
:10359000FFFE384602F07EFF4046FCF7CBFD01F00F
:1035A0006FFD2F6BFCF7C2FD804626604046FCF79E
:1035B000C1FD3846BDE8FC816FF00107F6E7000069
:1035C000E9730008636F6D706C6574696F6E20211C
:1035D0003D2052545F4E554C4C00000072745F6C9D
:1035E0006973745F6973656D707479282628636FD9
:1035F0006D706C6574696F6E2D3E73757370656E5A
:103600006465645F6C6973742929000046756E6394
:1036100074696F6E5B25735D207368616C6C206EDE
:103620006F74206E65207573656420696E20495340
:10363000520A00003000000070B5044C044D02E056
:1036400020688047241DAC42FAD370BD107C00086E
:10365000187C000870B5044C044D02E020688047D7
:10366000241DAC42FAD370BD187C0008247C0008ED
:103670000148006870470000F800002070B5084C51
:10368000266800F02FFA050008D0206808B100F085
:10369000FBF94321284600F063FA2560304670BDEF
:1036A000F80000202DE9F0411E4617460D460400A3
:1036B00004D12A220D490EA0FFF79AFE266225802A
:1036C000678000202081608104F11000606120612A
:1036D0000830E061A061E80001F060F8E06010B13E
:1036E0000020BDE8F0816FF00400FAE70F740008D5
:1036F000717565756520213D2052545F4E554C4CC7
:103700000000000070B515460E46040005D14FF4C8
:103710008372144914A0FFF76BFEFCF707FD2189A3
:103720006289914204D1FCF705FD6FF0030070BD82
:103730002288B1FBF2F302FB1311E26852F8311058
:10374000316021892288B1FBF2F302FB13110422BC
:1037500002EBC101E26851582960FCF7EBFC002044
:1037600070BD000047740008717565756520213DC6
:103770002052545F4E554C4C000000002DE9FF478D
:1037800017468846040004D1A3224F494FA0FFF7F3
:103790002FFEB8F1000F04D1A4224B4950A0FFF72F
:1037A00027FE27B9A522484952A0FFF721FE002590
:1037B00002F024FC8146FCF7B9FC06463FE0039882
:1037C000002836D0FCF7B2FC054600F03BFF40B1C4
:1037D0003D494CA000F080FFB5223B4953A0FFF7C4
:1037E00007FE2846FCF7A6FC00214846C9F8301021
:1037F00002F090FC09F1140104F1180000F0ACFF94
:103800000398002809DD09F14C0003AA00210546B0
:1038100002F0BEFD284602F03DFE3046FCF78AFC71
:1038200001F02EFCD9F83050FCF780FC064635B18B
:1038300002E06FF001053046FCF77CFC40E0208997
:1038400061898842BBD0218880B2B0FBF1F201FBD4
:103850001201E06850F83110C8F800102089228861
:10386000B0FBF2F102FB1100042101EBC000E168A2
:10387000085838602089401C80B220816189081A6C
:103880006188884214DC206904F11001884208D064
:10389000143802F07BFB3046FCF74CFC01F0F0FBE7
:1038A00002E03046FCF746FC226A4AB1032105E0FB
:1038B0003046FCF73FFC226A12B1012120469047B6
:1038C00004B02846BDE8F087357400087175657549
:1038D0006520213D2052545F4E554C4C00000000A5
:1038E000646174615F70747220213D2052545F4E98
:1038F000554C4C0073697A6520213D2052545F4E2F
:10390000554C4C0046756E6374696F6E5B25735D34
:10391000207368616C6C206E6F74206E6520757307
:10392000656420696E204953520A0000300000008F
:103930002DE9FF4790468946040004D14A224149B7
:1039400041A0FFF755FD002602F058FB0546FCF7A5
:10395000EDFB07463DE00398002834D0FCF7E6FB7A
:10396000064600F06FFE40B136493CA000F0B4FEC0
:103970005B22344943A0FFF73BFD3046FCF7DAFBFE
:1039800000202863284602F0C5FB05F1140104F16C
:10399000100000F0E1FE0398002809DD05F14C005D
:1039A00003AA0021064602F0F3FC304602F072FD45
:1039B0003846FCF7BFFB01F063FB2E6BFCF7B6FB50
:1039C000074636B102E06FF001063846FCF7B2FB5D
:1039D00033E060892189401A21888842BBD0608900
:1039E00089B2B0FBF1F201FB1201E26842F83190BA
:1039F00060892188B0FBF1F201FB12000421E2682A
:103A000001EBC00142F80180608904F11801401CFB
:103A10006081A069884208D0143802F0B7FA3846AD
:103A2000FCF788FB01F02CFB07E03846FCF782FB33
:103A3000226A12B102212046904704B03046BDE808
:103A4000F087000022740008717565756520213DBE
:103A50002052545F4E554C4C0000000046756E637A
:103A600074696F6E5B25735D207368616C6C206E8A
:103A70006F74206E65207573656420696E204953EC
:103A8000520A00003000000070B504004FF000053D
:103A900005D14FF494720E490EA0FFF7A9FCA07E49
:103AA00030B1401E10F0FF00A07604D0002070BDA1
:103AB0004FF0FF3070BDE16A29B12046884705000C
:103AC00001D0A81D01D100202083284670BD000030
:103AD000976E000864657620213D2052545F4E5554
:103AE0004C4C00002DE9F041064602F087FA08B17F
:103AF00000F0EAF9082001F05BFA050004D1752214
:103B0000104911A0FFF774FC55F8044F09E000BFFD
:103B1000A4F10C0007460822314602F01FF850B10C
:103B20002468AC42F4D102F069FA08B100F0DAF985
:103B30000020BDE8F08102F061FA08B100F0D2F98E
:103B40003846F6E76A6E0008696E666F726D6174DA
:103B5000696F6E20213D2052545F4E554C4C000041
:103B600070B50E4604004FF0000504D1E82220494C
:103B700020A0FFF73DFCA07DC0060FD4616A49B1CB
:103B800020468847050005D0024621461DA000F0CA
:103B9000A3FD2AE0E08A40F01000E082A07D00074B
:103BA00005D5207E000702D56FF0060070BDA26A21
:103BB0003AB1314620469047050006D0A81D04D0F2
:103BC00013E040F60F7006402683208B40F008007B
:103BD0002083A07E401C10F0FF00A07605D14FF49A
:103BE0008B72034915A0FFF703FC284670BD000047
:103BF000886E000864657620213D2052545F4E5542
:103C00004C4C0000546F20696E697469616C697A6C
:103C100065206465766963653A2573206661696C21
:103C200065642E20546865206572726F7220636F20
:103C300064652069732025640A0000006465762DA0
:103C40003E7265665F636F756E7420213D203000A3
:103C50002DE9F0411D4616460F46040005D140F2FD
:103C600051120E490EA0FFF7C3FBA07E58B1D4F845
:103C700030C0BCF1000F09D02B46324639462046F1
:103C8000BDE8F04160474FF0FF3001E06FF0050004
:103C900001F0B6FE0020BDE8F0810000A76E00082C
:103CA00064657620213D2052545F4E554C4C0000F7
:103CB0002DE9F041154604000F464FF0FF3603D0C2
:103CC0000846FFF70FFF10B13046BDE8F0813A46D5
:103CD0000821204601F07EF9E5820020A0762083AD
:103CE000F3E7000070B50D46040005D140F2AF12B5
:103CF000034904A0FFF77CFB0020E56170BD0000D4
:103D0000D86E000864657620213D2052545F4E55E0
:103D10004C4C00002DE9F0411D4616460F460400AC
:103D200005D140F277120E490EA0FFF761FBA07E8D
:103D300058B1D4F834C0BCF1000F09D02B4632463C
:103D400039462046BDE8F04160474FF0FF3001E0C2
:103D50006FF0050001F054FE0020BDE8F081000086
:103D6000B66E000864657620213D2052545F4E55A2
:103D70004C4C000070B5C46C05462CB940F25D1285
:103D80000B490CA0FFF734FBA188E088814206D1E3
:103D9000A068002802D0A86CC0F38F2070BD04D8A2
:103DA000A0EB0100A96CC1F38F21A1EB000070BD55
:103DB0009874000872785F6669666F20213D205212
:103DC000545F4E554C4C000070B5C46C0D46064611
:103DD0002CB94FF4C37211491148FFF709FB304663
:103DE000FFF7C8FFA84205D240F287120B490DA089
:103DF000FFF7FEFAA06810B10DB10020A060E088C6
:103E0000284481B2E180B06CC0F38F20814204D994
:103E1000B1FBF0F200FB1210E08070BDB574000839
:103E2000B43D00086C656E203C3D2072745F646D8B
:103E3000615F63616C635F7265637665645F6C6527
:103E40006E2873657269616C2900000070B5C46CDE
:103E50000E4605462CB94FF4CE7219491948FFF7A2
:103E6000C7FAE188A08801228142304480B2A08054
:103E70000ED8AB6CC3F38F23984217D3B0FBF3F685
:103E800003FB1600A080884210D3E080A2600DE002
:103E900088420BD3A96CC1F38F21884204D3B0FBB5
:103EA000F1F301FB1300A08080B2EEE7A96CE0887B
:103EB000C1F38F21884201D30020E08070BD000053
:103EC000D2740008B43D000810B5FCF72FF9044A7D
:103ED0005188491C5180BDE81040FCF72BB9000007
:103EE000A801002010B5FCF721F909494A88521EA3
:103EF00012B24A80002A07DC00224A80FCF71AF935
:103F0000BDE8104001F0BCB8BDE81040FCF712B9A4
:103F1000A801002070B50446FCF708F9054600F03A
:103F200091FB48B1354936A000F0D6FB40F229227A
:103F300032493DA0FFF75CFA2846FCF7FBF8002C5D
:103F40005BD0A00705D040F22D222C4937A0FFF707
:103F50004FFA434DA868844202D3E868844205D3EF
:103F600040F22E2225493F48FFF742FA696809B11D
:103F700020468847A86884423FD3E86884423CD200
:103F80004FF0FF3138480C3C01F068F960884FF47D
:103F9000F55610B12088B04219D034A000F09CFB37
:103FA00023886288214638A000F096FB608828B9F3
:103FB00040F24D22114940A0FFF71AFA2088B04282
:103FC00005D040F24E220D493EA0FFF711FA002025
:103FD000608026802869844200D22C61A9686068CC
:103FE000611A401AA969081AA8612046FFF7BCF8AF
:103FF000BDE870401C4801F00FB970BDC0710008E9
:1040000046756E6374696F6E5B25735D20736861BE
:104010006C6C206E6F74206E65207573656420690A
:104020006E204953520A00003000000028282872F0
:10403000745F75696E7433325F7429726D656D29B2
:104040002026202852545F414C49474E5F53495A1D
:1040500045202D20312929203D3D20300000000041
:10406000040100208C76000890100020746F2066F8
:104070007265652061206261642064617461206200
:104080006C6F636B3A0A00006D656D3A20307825DD
:104090003038782C207573656420666C61673A202F
:1040A00025642C206D6167696320636F64653A2025
:1040B0003078253034780A006D656D2D3E75736556
:1040C000640000006D656D2D3E6D61676963203D84
:1040D0003D20484541505F4D4147494300000000A5
:1040E00010B5FCF711FAFDF785F90549054801F00F
:1040F00059FDFFF7A1FABDE8104003A0FFF7BEBAD3
:1041000000400020381B00207561727433000000ED
:104110007047000070B50546041D2D48016819B1AF
:1041200028468847002851D02AA0E16B00F0D4FA35
:104130002CA0216A00F0D0FA2EA0616A00F0CCFA1F
:1041400030A0A16A00F0C8FA32A0E16A00F0C4FA17
:1041500034A0216800F0C0FA36A0616800F0BCFA13
:1041600038A0A16800F0B8FA3AA0E16800F0B4FA0B
:104170003CA0216900F0B0FA3EA0616900F0ACFA01
:1041800040A0A16900F0A8FA42A0E16900F0A4FAF9
:1041900044A0216B00F0A0FA46A0616B00F09CFAED
:1041A00048A0A16B00F098FA2878400708D501F0E4
:1041B00025FF014647A000F08FFAFEF752FD02E00E
:1041C0004CA000F089FAFEF769FCFEE770BD000024
:1041D000E40100207073723A203078253038780A74
:1041E000000000007230303A203078253038780AEC
:1041F000000000007230313A203078253038780ADB
:10420000000000007230323A203078253038780AC9
:10421000000000007230333A203078253038780AB8
:10422000000000007230343A203078253038780AA7
:10423000000000007230353A203078253038780A96
:10424000000000007230363A203078253038780A85
:10425000000000007230373A203078253038780A74
:10426000000000007230383A203078253038780A63
:10427000000000007230393A203078253038780A52
:10428000000000007231303A203078253038780A4A
:10429000000000007231313A203078253038780A39
:1042A000000000007231323A203078253038780A28
:1042B00000000000206C723A203078253038780AEF
:1042C000000000002070633A203078253038780AEA
:1042D0000000000068617264206661756C74206F74
:1042E0006E207468726561643A2025730D0A0D0AA8
:1042F0000000000068617264206661756C74206F54
:104300006E2068616E646C65720D0A0D0A00000013
:104310002DE9FE430446C8B200274FF001080128EA
:104320001CD0022861D003286ED0042814D1256D3A
:1043300000236A4602A9281DFFF720FA6A4601A950
:10434000281DFFF7DFF9002854D02F60226A002AC9
:1043500002D0204602999047BDE8FE83E56C2DB956
:1043600040F26542424943A0FFF742F8206CC16821
:10437000204688470646401C20D0FBF7D7FEAA8877
:1043800029688E54A988491C89B2A980A26CC2F3FD
:104390008F22914200D3AF80AA88E9888A420AD14D
:1043A000491C89B2E980C5F80880A26CC2F38F224B
:1043B000914200D3EF80FBF7BDFED7E7E06900280C
:1043C000CAD0FBF7B3FE0246A888E988884201D329
:1043D000451A04E0081AA16CC1F38F210D1A10468A
:1043E000FBF7A8FE2946E26928E0206DBDE8FE4300
:1043F000FFF734B8C5F80080206CDDE900210569BD
:1044000002232046A847A1E70E121F49A06C0842CC
:1044100002D1E56CBDB11CE0FBF788FE05463146D4
:104420002046FFF713FD2046FFF7A4FC064628466A
:10443000FBF780FEE269002A8ED0314603B02046A9
:10444000BDE8F04310474FF4986209490FA0FEF70A
:10445000CFFFE06928B940F2C242054910A0FEF73B
:10446000C7FFE2693146204690472F6074E700009D
:104470007375000872785F6669666F20213D20526F
:10448000545F4E554C4C000000FCFF0372785F6493
:104490006D6120213D2052545F4E554C4C00000070
:1044A00073657269616C2D3E706172656E742E72F7
:1044B000785F696E64696361746520213D205254A0
:1044C0005F4E554C4C0000002DE9F0411C4615464E
:1044D0000E46070005D140F23D420E490EA0FEF700
:1044E00087FF00213975F9613962104979621049F5
:1044F000B9621049F9621049396310493846796345
:104500000F49C0E90E14AAB23146BDE8F041FFF7E9
:10451000CFBB00005D75000873657269616C202176
:104520003D2052545F4E554C4C000000B9550008D8
:10453000FD550008C153000845580008E15800081F
:104540002555000870B50446121D22F00700002210
:10455000094D403840F82250521C102AFAD301620B
:104560000021416281624FF0807200F13005C26328
:10457000C16285E81A0070BDEFBEADDE2DE9F047DF
:104580001E484FF4165100F1080544681D481C4EA2
:104590000564C0E911143046FCF79CFE40F2031993
:1045A00033464A4618A11748FFF78EFF15484FF4C7
:1045B000E137543000F12C080564C8E9067444362C
:1045C0003046FCF787FE33464A4611A1A8F12C007D
:1045D000FFF77AFF08F1280044360564C8E91B7428
:1045E0003046FCF777FE33464A460BA108F1280017
:1045F000FFF76AFF0020BDE8F0870000B46D0008F7
:1046000010000020940C00207561727431000000CD
:1046100075617274320000007561727433000000BD
:1046200010B5FBF783FD064904460878401C087066
:10463000486800B180472046BDE81040FBF77ABDCE
:10464000EC0000200148007870470000EC000020DA
:1046500010B5FBF76BFD064904460878401E08704C
:10466000886800B180472046BDE81040FBF762BD76
:10467000EC00002010B50068143801F087FC002021
:1046800010BD00002DE9F041064614460D460846CF
:1046900001F040FD05F11407B4B1012C18D13468C4
:1046A0000EE000BF95F8351094F82120A4F1140015
:1046B000914204D23946143000F047F802E02468F1
:1046C000B442EFD1B44203D13946304600F03DF850
:1046D0000020BDE8F08100000FB47F2170B505AB6C
:1046E0000D48049A01F09CFF03467F2800D97F23E0
:1046F0000A4D286860B1048B074A44F040010183E9
:104700000021FFF707FB2868048370BC5DF814FBE9
:104710000148FFF7FDFCF8E710100020F80000202A
:104720000268516002680A60016048607047026870
:10473000516002680A600160486070470268516019
:1047400002680A6001604860704742681160426810
:104750004A604160086070474268116042684A6080
:104760004160086070470246002100E0491C006873
:104770009042FBD108467047D0E900124A60D0E968
:1047800000121160406000607047D0E900124A607A
:10479000D0E9001211604060006070472DE9F047D9
:1047A0000446FBF7C3FC0546FFF74CFF48B15449EC
:1047B00054A0FFF791FF4FF48B7251495BA0FEF7B5
:1047C00017FE2846FBF7B6FC34B1E41C24F00306C0
:1047D000574C6069864202D90020BDE8F0870C2E54
:1047E00000D20C264FF0FF31524800F037FDA1688F
:1047F0002069D4F814C0421AACEB060379E08D1896
:104800006F88002F74D16F68BF1A0C3FB7426FD307
:104810006B6806F118079B1A0C3B4FF001094FF427
:10482000F55ABB422BD397190C37CB194FF0000820
:10483000A3F800A0A3F80280D5F80480C3E90182A0
:104840006F60A5F802905A680CF10C0C624502D01A
:1048500001F10803D750A26932440C32A261E36926
:10486000934200D2E261A5F800A085421AD1E26825
:10487000438863B190420AD040680844F8E7A5F83D
:1048800002906A686B1AD21AA3691A44E6E720619B
:10489000904207D0408828B140F28312184926A0E0
:1048A000FEF7A6FD234800F0B7FCA819E1680C301C
:1048B000884205D940F2871211492948FEF798FD30
:1048C000A8070BD04FF4C4720D492648FEF790FD9F
:1048D00040F289120A4924A0FEF78AFD22681AB123
:1048E000314605F10C00904705F10C0075E7FFE734
:1048F0006A68934283D80F4800F08EFC6CE7000092
:10490000E771000846756E6374696F6E5B25735DB1
:10491000207368616C6C206E6F74206E65207573F7
:10492000656420696E204953520A0000300000007F
:10493000040100209010002028286C667265652014
:104940003D3D20686561705F656E6429207C7C2038
:1049500028216C667265652D3E7573656429290092
:10496000E87600084076000828282872745F756988
:104970006E7433325F74296D656D292026202852AC
:10498000545F414C49474E5F53495A45202D2031D1
:104990002929203D3D20300010B50346102A1DD3A3
:1049A00041EA0304A40719D110C9103A10C310C971
:1049B000102A10C351F8084B43F8084B51F8044C27
:1049C00043F8044CF0D202E010C9121F10C3042AAD
:1049D000FAD203E011F8014B03F8014B521EF9D251
:1049E00010BD000010B50346994211D28C189C42AC
:1049F0000ED9811804E000BF14F8013D01F8013D13
:104A0000521EF9D210BD00BF11F8014B03F8014B43
:104A1000521EF9D210BD000010B50346CCB2042AD4
:104A20001AD3810718D1194644EA042343EA034301
:104A300006E008C1103A08C141F8083B41F8043CBF
:104A4000102AF6D201E008C1121F042AFBD20B463D
:104A500002E000BF03F8014B521EFBD210BD000064
:104A60002DE9F0471D46DDE9088716468946040012
:104A700005D140F2DB62174917A0FEF7B9FC4A46A0
:104A80000521204600F0A6FA677204F11400A06127
:104A9000E66160614FF6FC70ED1C054025842D1D1C
:104AA000B8FBF5F060840021A162E1620846216351
:104AB00008E0228CE369121D00FB0232236B1360B5
:104AC000401C2263628C8242F3DCA1840020BDE89A
:104AD000F08700003B7000086D7120213D2052548A
:104AE0005F4E554C4C0000002DE9FF4F83B0164639
:104AF0008B46040005D140F63F025D495DA0FEF7FC
:104B000077FCBBF1000F05D14FF4046258495DA05A
:104B1000FEF76EFC2EB940F6410255495EA0FEF745
:104B200067FC4FF0000A01F069FA05465D4801682C
:104B300009B120468847FBF7F9FA0746A08C069989
:104B40006FF0010808434FF0000961D13846FBF7C8
:104B5000F1FA404607B0BDE8F08F00BFFBF7E6FA78
:104B6000019001F04BFA48B941494FA0FFF7B4FD5D
:104B700040F657023E494AA0FEF73AFCFBF7D6FA48
:104B80000090FFF75FFD48B1394955A0FFF7A4FD3C
:104B900040F65702364942A0FEF72AFC0098FBF780
:104BA000C9FA0198FBF7C6FAC5F8309006980028B4
:104BB00056D0627A294604F11400FFF763FD069887
:104BC00000280CDD01F08EFB824605F14C0006AAA0
:104BD0000021009001F0DCFB009801F05BFC3846FE
:104BE000FBF7A8FA00F04CFA286B0028B2D1FBF7CB
:104BF0009DFA0746069800280ADD01F073FB069926
:104C0000A0EB0A0AB1EB0A00069001D5CDF8189086
:104C1000A08C0028A2D0A56A2868A062E06AA842F9
:104C200001D1C4F82C90A08C401EA0843846FBF71C
:104C300081FA208CB04200D206463246291D5846E1
:104C4000FFF7AAFEFBF772FA216B29602563FBF7D9
:104C500071FA2D48016809B120468847002079E79C
:104C60003846FBF767FA4046C5F8308072E7000027
:104C7000857000086D7120213D2052545F4E554CC7
:104C80004C00000062756666657220213D2052541A
:104C90005F4E554C4C00000073697A6520213D2021
:104CA000300000002C01002046756E6374696F6E41
:104CB0005B25735D207368616C6C206E6F7420627D
:104CC000652075736564206265666F726520736325
:104CD000686564756C65722073746172740A000093
:104CE00046756E6374696F6E5B25735D20736861D2
:104CF0006C6C206E6F74206E65207573656420691E
:104D00006E204953520A0000300100202DE9F04185
:104D100016460F46040005D140F28F72284929A09B
:104D2000FEF766FB2FB94FF4F262254929A0FEF782
:104D30005FFB2EB940F2917221492BA0FEF758FB80
:104D4000208CB04203D24FF0FF30BDE8F0812948FB
:104D5000016809B120468847FBF7E8F9256BA5B142
:104D600029682163FBF7E6F90020286032463946BE
:104D7000281DFFF711FEFBF7D9F90646E06A00B1DE
:104D80000560E562A06A28B105E0FBF7D3F96FF092
:104D90000200DAE7A562A08C401CA084616904F1DE
:104DA0001400814207D0FFF765FC3046FBF7C2F9DB
:104DB00000F066F902E03046FBF7BCF90020C4E7DA
:104DC0006D7000086D7120213D2052545F4E554C8E
:104DD0004C00000062756666657220213D205254C9
:104DE0005F4E554C4C00000073697A6520213D20D0
:104DF00030000000340100202DE9F0410F46064646
:104E0000FBF794F90446FFF71DFC48B11C491DA0AF
:104E1000FFF762FC40F24512194924A0FEF7E8FAB8
:104E20002046FBF787F9304600F0C2F8050005D1AF
:104E300040F2511212491EA0FEF7DAFAE868FFF7B5
:104E4000ADFC04001AD02672002060720822394698
:104E5000204600F093FE1C48016809B120468847AF
:104E6000FBF764F9064604F10C01281DFFF758FC16
:104E70003046FBF75FF92046BDE8F0810020FBE7F4
:104E80002672000846756E6374696F6E5B25735DEC
:104E9000207368616C6C206E6F74206E6520757372
:104EA000656420696E204953520A000030000000FA
:104EB000696E666F726D6174696F6E20213D20525C
:104EC000545F4E554C4C00002401002070B5040086
:104ED00005D140F28712104910A0FEF789FA207A16
:104EE000000605D54FF4C4720B4911A0FEF780FAF5
:104EF0001A48416809B120468847FBF717F905466B
:104F000004F10C00FFF738FC2846FBF713F92046A4
:104F1000BDE87040FEF7FEBF397200086F626A6537
:104F2000637420213D2052545F4E554C4C000000CC
:104F300021286F626A6563742D3E7479706520263E
:104F40002052545F4F626A6563745F436C61737390
:104F50005F5374617469632900000000240100201C
:104F600070B5040005D14FF494720A490AA0FEF707
:104F70003FFA0E48416809B120468847FBF7D6F84A
:104F8000054604F10C00FFF7F7FB2846BDE870402A
:104F9000FBF7D0B8157200086F626A656374202150
:104FA0003D2052545F4E554C4C000000240100201F
:104FB000074A002102EB01131B78834202D102EB66
:104FC00001107047491C0729F4DB002070470000DE
:104FD000380100202DE9F041054617460E460846E7
:104FE000FFF7E6FF040005D14FF483720E490FA0CE
:104FF000FEF7FEF946F0800028720822394628465E
:1050000000F0BCFD0F48016809B128468847FBF74E
:105010008DF8064605F10C01201DFFF781FB304697
:10502000BDE8F041FBF786B806720008696E666F4E
:10503000726D6174696F6E20213D2052545F4E5530
:105040004C4C00002401002010B5040005D14FF4A1
:10505000D672054905A0FEF7CBF9207A000601D5E6
:10506000012010BD002010BD4A7200086F626A6501
:10507000637420213D2052545F4E554C4C0000007B
:105080002DE9F041FBF752F8154C07466088F0B95E
:10509000A068FCF7BBFB1349401E666851F830500E
:1050A000143DB54213D020706560E26812B1294604
:1050B000304690472846FCF7BBFF0B48007805F1C7
:1050C0001C01002806F11C0006D0FBF736F8384614
:1050D000BDE8F041FBF72EB8FBF72FF8F7E700002B
:1050E000A8010020B0100020EC00002010B5040042
:1050F00005D14FF49172124912A0FEF779F9FBF72E
:1051000015F8024694F83400134920F00F00401CB3
:1051100084F8340094F8350001EBC00104F1140068
:105120004B6818604B68A36148600C486161A16BD3
:10513000836819438160BDE810401046FAF7FABF52
:105140008D72000874687265616420213D2052549C
:105150005F4E554C4C000000B0100020A80100200C
:1051600010B5040005D14FF4A872114911A0FEF743
:105170003FF9FAF7DBFF04F11401D1E90023536092
:10518000D1E900231A60A161616194F835200E49CC
:1051900051F8323001EBC2018B4204D10B49A36BB1
:1051A0008A689A438A60BDE81040FAF7C3BF0000DE
:1051B000A772000874687265616420213D20525412
:1051C0005F4E554C4C000000B0100020A80100209C
:1051D0002DE9F0411E4615460F46040004D1D822A1
:1051E000084909A0FEF704F93A4601212046FFF7D5
:1051F000F1FE04F11400A0616061A58366720020D5
:10520000BDE8F081226F000873656D20213D2052BA
:10521000545F4E554C4C000070B504460E48016872
:1052200009B120468847FAF781FF0546616904F114
:105230001400814207D0FFF71DFA2846FAF77AFFDB
:10524000FFF71EFF05E0A08B401CA0832846FAF75D
:1052500071FF002070BD0000340100202DE9F341F2
:10526000040005D140F24D12354936A0FEF7C0F8D2
:105270003848016809B120468847FAF757FF0646C3
:10528000A08B28B1401EA0833046FAF753FF4FE0B1
:10529000019840B1FAF74AFF804600F0AFFE40F2B5
:1052A0006D1538B10FE03046FAF744FF6FF001009A
:1052B000BDE8FC81224928A0FFF70EFA2A462049C2
:1052C00033A0FEF795F8FAF731FF0746FFF7BAF972
:1052D00040B11B492FA0FFF7FFF92A4618492CA01F
:1052E000FEF786F83846FAF725FF4046FAF722FF20
:1052F00000F084FE054600202863627A294604F106
:105300001400FFF7BFF90198002809DD05F14C00F2
:1053100001AA0021074601F03BF8384601F0BAF82F
:105320003046FAF707FFFFF7ABFE286B0028BFD126
:105330002248016809B1204688470020B8E70000EC
:10534000586F000873656D20213D2052545F4E5503
:105350004C4C00002C01002046756E6374696F6E22
:105360005B25735D207368616C6C206E6F742062C6
:10537000652075736564206265666F72652073636E
:10538000686564756C65722073746172740A0000DC
:105390003000000046756E6374696F6E5B25735D47
:1053A000207368616C6C206E6F74206E652075735D
:1053B000656420696E204953520A000030010020C4
:1053C00070B5040005D14FF430723C493CA0FEF7A3
:1053D0000FF8A07E01286ED8208B4FF00005C10584
:1053E00017D5E66C2EB940F2CB22344938A0FDF730
:1053F000FFFF3046FEF78EFDE564208B4FF4807290
:1054000020F480712183206C112143682046984745
:1054100024E0800522D53349A06CE66C084201D116
:1054200016B10CE02EB10AE040F2D92223492EA099
:1054300003E04FF43872214925A0FDF7D9FF30462B
:10544000FEF768FD206C4FF400721121436820467E
:105450009847E564208B20F400712183208B41055F
:1054600017D5266D2EB940F2EF22144923A0FDF77F
:10547000BFFF3046FEF74EFD2565208B4FF480625E
:1054800020F480612183206C1121436820469847D5
:1054900011E000050FD5266D2EB94FF43F72074974
:1054A0001BA0FDF7A5FF3046FEF734FD2565208BD8
:1054B00020F400602083002070BD00001C750008EF
:1054C00064657620213D2052545F4E554C4C0000BF
:1054D00072785F6669666F20213D2052545F4E5599
:1054E0004C4C000000FCFF0372785F646D6120216A
:1054F0003D2052545F4E554C4C00000074785F665E
:1055000069666F20213D2052545F4E554C4C00007F
:1055100074785F646D6120213D2052545F4E554C7C
:105520004C0000002DE9F04114460E4607004FF0F4
:10553000000505D140F29D321A491BA0FDF758FF26
:105540003846012E10D0022E0AD0032E11D0016C45
:1055500022464B683146984705462846BDE8F0810B
:10556000F88A40F0200002E0F88A20F02000F8825B
:10557000F3E7002CF1D06168836CC1F38F22C3F391
:105580008F239A4203D0827E0AB10720E6E7226881
:10559000C0E91121817E0029DFD0016C0A68214613
:1055A0009047DAE74B75000864657620213D20526C
:1055B000545F4E554C4C000070B504004FF0000590
:1055C00005D140F22622084908A0FDF711FF00216D
:1055D000E1642165216C20460A681AB100F144019A
:1055E00090470546284670BDFE7400086465762025
:1055F000213D2052545F4E554C4C00002DE9F041A6
:105600000D4604004FF0000705D140F239227349DE
:1056100073A0FDF7EDFEA9056FF0070002D5E18A42
:1056200089057DD5290502D5E18A090578D5E905E1
:1056300002D5E18AC90573D5690502D5E18A490514
:105640006ED5680602D4207E400600D54027E8B219
:105650002083E16C4FF0000829B1A9056ED500BF89
:1056600040F400716EE0A8053AD56149A06C08428B
:1056700005D10420FFF792F8060008D00DE0C0F332
:105680008F200C30FFF78AF806000AD00FE04FF4A5
:105690001672524957A0FDF7ABFEC6F80080E664CB
:1056A0001CE040F261224D4957A0FDF7A1FE06F132
:1056B0000C003060A16CC1F38F220021FFF7ACF920
:1056C000A6F80480A6F80680C6F80880E664206C78
:1056D0004FF400720321436820469847208BBFE7B0
:1056E000E80530D5A06CC0F38F200C30FFF756F8DA
:1056F000060005D140F27322384943A0FDF778FE39
:1057000006F10C003060A16CC1F38F220021FFF77D
:1057100083F9A6F80480A6F80680C6F8088000E0A1
:105720005AE0E664208B4FF4807240F4807121834C
:10573000206C102143682046984704E0E90502D513
:1057400040F480712183206D00284FEA055005D078
:10575000002837DA208B40F4006038E0002814DAA3
:105760002820FFF71BF8050005D140F293221B49C2
:105770002AA0FDF73DFE002304220821281DC5F8BC
:105780000080FDF78FFF2565E4E7680520D50C2034
:10579000FFF704F8050005D14FF428720F4924A043
:1057A000FDF726FE2846FDF78BFE2565208B4FF47E
:1057B000806240F480612183206C10214368204680
:1057C000984705E0680503D5208B40F4806020836E
:1057D000208B384320830020BDE8F0810D75000840
:1057E00064657620213D2052545F4E554C4C00009C
:1057F00000FCFF0372785F646D6120213D205254EC
:105800005F4E554C4C00000072785F6669666F20F1
:10581000213D2052545F4E554C4C000074785F641B
:105820006D6120213D2052545F4E554C4C000000CC
:1058300074785F6669666F20213D2052545F4E5533
:105840004C4C00002DE9F0411C461546060005D1E0
:1058500040F20D32184919A0FDF7CAFD4CB1318B49
:105860003046CA0508D522462946BDE8F041FCF776
:105870006FBD0020BDE8F081890505D52246294687
:10588000BDE8F041FCF7A8BC2EB90B49E222D239A1
:105890000EA0FDF7ADFD2746306CC1683046884745
:1058A000411C06D0641E05F8010B0A2801D0002C0B
:1058B000F2D1381BDEE700002C7500086465762005
:1058C000213D2052545F4E554C4C00007365726967
:1058D000616C20213D2052545F4E554C4C0000001D
:1058E0002DE9F0471C461646050005D140F2253249
:1058F00039493AA0FDF77CFD34B1288B4FF0FF39D0
:10590000410529D51DB109E00020BDE8F0873249E5
:1059100040F24512B2393548FDF76AFDD5F850809E
:1059200027465FEA080006D12B4940F24912B239F6
:105930002FA0FDF75DFD286C3178826828469047DE
:10594000401C04D0641E761C002CF4D142E0494671
:105950004046FDF7D5FDF7E700051FD52F6D4B46F7
:1059600022463146381DFDF7E3FF10B100F048F83C
:10597000CAE7FAF7DBFB396801290BD0012139604E
:10598000FAF7D8FB286C02232246076931462846DD
:10599000B84701E0FAF7CEFB2046B6E72DB90E492D
:1059A000F622D1391148FDF723FD274630780A2821
:1059B00007D1287E400604D5286C0D218268284630
:1059C0009047286C3178826828469047641E06F11B
:1059D0000106EBD1384698E73B75000864657620F0
:1059E000213D2052545F4E554C4C0000CC580008CD
:1059F000747820213D2052545F4E554C4C000000DD
:105A000070B50446FEF71EFE044D20B900F0F6FA0C
:105A100008B1046370BD6C6070BD0000F800002028
:105A200008B509A0FEF758FE0AA0FEF755FE12A021
:105A3000032300900022194612A0FEF74DFEBDE898
:105A4000084018A0FEF748BE0A205C207C202F0AE0
:105A5000000000002D205254202D20202020205412
:105A60006872656164204F7065726174696E672049
:105A700053797374656D0A004175672032362032A0
:105A800030313800202F207C205C20202020202551
:105A9000642E25642E2564206275696C642025734C
:105AA0000A0000002032303036202D2032303138CC
:105AB00020436F707972696768742062792072740C
:105AC0002D746872656164207465616D0A00000060
:105AD0002DE9F04100F006FC8046FEF7F5F91A4E7C
